:020000021000EC
:04E000000C941AFA68
:04E024000C94CAF49A
:04E030000C94BFF499
:04E048000C94EDF057
:10E08C0008E20AB901E00093D80000E00093DB003D
:10E09C0000E00093DF0000E00093DE000AE0009354
:10E0AC00E2000EE00093E3000BE40093E40000E0D8
:10E0BC0009C0102F1295107F1093ED0018E81093E3
:10E0CC00EF0003950430A8F304E00093F40000E0A3
:10E0DC000093F50000E00093F6000FEF0093F700BB
:10E0EC0000E00093F00000E00093F10000E00093EA
:10E0FC00F20000E30093F30004E009C0102F129526
:10E10C00107F1093ED0010E01093EF0003950F308B
:10E11C00A8F302E00093D80000EA0093DB000FE0C4
:10E12C000093DE0008959A938A93C8010024112469
:10E13C002224332400E10093ED000000000000E0F5
:10E14C000093F00000E00093F1008A010295007F3B
:10E15C00000F0093F2008A0143E00E9448FA0093FA
:10E16C00F30000E010E009C00000FC01E00FF11F1B
:10E17C0030813093FA000F5F1F4F30E00217130706
:10E18C009CF300E00093EE0000E00093DB0003EC56
:10E19C0019E001501040E9F700C000002064209302
:10E1AC00EF0003C00091EE000EB90091EE00102FAD
:10E1BC0016FFF8CF00EA0093DB0003EC19E00150E6
:10E1CC001040E9F700C00000899199910895AA9335
:10E1DC009A938A93FA93EA933A922A921A920A920F
:10E1EC007A936A935A934A933A932A931A930A937B
:10E1FC009FB7ABB7F89400E010E080E027C0182F71
:10E20C001295107F102B1093ED002091FA0010E066
:10E21C00F801EE53F94F2083000003951091CC06C2
:10E22C00011768F322EC36E000E411E00E9484F15F
:10E23C00082F0295007F0093ED0008E80093EF0093
:10E24C000091EE00017C0093EE008395843080F504
:10E25C00082F0295007F0093ED0000000091EE0066
:10E26C0005FB9EF70E70002319F70091F000102F9C
:10E27C0012FDDECF4091F30050E008E010E00E9468
:10E28C003AFA2091F20022952F70269530E0020F79
:10E29C00131F003821E0120759F60093CA06109399
:10E2AC00CB060091EF000F700093CC0600E0B6CFC8
:10E2BC007894ABBF9FBF09911991299139914991DC
:10E2CC005991699179910990199029903990E99116
:10E2DC00F99189919991A991189520E0F8012183E0
:10E2EC0020E0F80120830895F8012181F8010081D4
:10E2FC00201711F401E0089500E00895BA93AA9351
:10E30C00D801FD014181042F0395FD01018350E0EB
:10E31C000BE010E00E943AFABD01600F711F6E5FB6
:10E32C007F4F8B01F9014BE050E00E9456FAFD0142
:10E33C00018140E80E942CFAFD014183FD0101811D
:10E34C001C91011741F40C9103950C9340E80C912E
:10E35C000E942CFA4C93A991B99108950E946BFAE2
:10E36C00D801C9018D01C0DF0023D9F44C91042FD1
:10E37C0003950C9350E00BE010E00E943AFA9D01DB
:10E38C00200F311F2E5F3F4F8C01F9014BE050E005
:10E39C000E9456FA40E80C910E942CFA4C9301E032
:10E3AC0001C000E0E4E00C947AFA30E3F801308329
:10E3BC00F8012183F801428323E007C040E030E0FC
:10E3CC00F801E20FF31F408323952830B8F308952A
:10E3DC000E946AFA2B97D801C901442407C009810D
:10E3EC000C930A81FC010083442443944420D1F40F
:10E3FC0000E411E00E947AF10023C1F79E0100E4D1
:10E40C0011E00E94B4F10881007F003389F7088184
:10E41C000F70005021F30A9549F30A9539F70FEF65
:10E42C001FEF02C000E010E02B96E5E00C9479FAA7
:10E43C000E9461FA2A976801422E4A01A62E888D05
:10E44C00998D55246624639400E10A83042D10E011
:10E45C009C01200F311F232F0A81022B0A83082FC6
:10E46C00040D0B8300E010E00BC0F601E00FF11F70
:10E47C002081FE013296E00FF11F22830F5F1F4FA8
:10E48C00063020E01207B4F4242D30E002171307F5
:10E49C0064F3242D30E0A801421B530BF4013A2DF8
:10E4AC00E40FF51F3BBF2691FE013296E00FF11FE2
:10E4BC002283E4CF40E052E060E070E028E08E017F
:10E4CC000E5F1F4F0E9499F007EA11E601501040B1
:10E4DC00E9F700C00000A6E0B0E018C0062D005E11
:10E4EC000A8340E052E060E070E028E08E010E5FAD
:10E4FC001F4F0E9499F05A9407EA11E60150104000
:10E50C00E9F700C0000063940FE06022242D30E096
:10E51C008C01020F131FA017B1077CF5552031F4A5
:10E52C009E012F5F3F4F8E0153DF588001E00CC0DE
:10E53C00F601EA0FFB1F2081FE01329610E0E00F7E
:10E54C00F11F208311960395083040F6242D30E0FE
:10E55C00A217B3076CF3242D30E0AD01421B530B13
:10E56C00F4013A2DE40FF51F3BBF2691FE013296C4
:10E57C0010E0E00FF11F2083E5CF00E010E02A96B9
:10E58C00E0E10C9470FA9A938A932897322F3F709B
:10E59C00388380E090E009C0F801E80FF91F308162
:10E5AC00FE01E80FF91F31830196422F50E04F70A6
:10E5BC0050708417950784F340E052E060E070E0FF
:10E5CC0028E08E010E9499F02896899199910895DE
:10E5DC000E9461FA6B974801D9016A018E01055FAF
:10E5EC001F4FF80120E088E021938A95E9F7442435
:10E5FC00BB2426C0FE0110E0E00FF11F1081F401D6
:10E60C00E80FF91F1083019611E0610E10E0711EE6
:10E61C000395083078F304E2A02E40E050E02A2D58
:10E62C008E01055F1F4FC1DE40E052E060E070E0FC
:10E63C0028E08E01055F1F4F0E9499F0BB24B39414
:10E64C0000E411E00E947AF10023D1F79E0100E46E
:10E65C0011E00E94B4F10B2D005019F00A95E9F16C
:10E66C00EFCF0AEF0EB90881007F0023D9F408819F
:10E67C0010E00F7010700D931C9300E00BC0FE01A6
:10E68C0010E0E00FF11F218110E0F401E00FF11F09
:10E69C002083039518811F70011788F301E0F601A0
:10E6AC000995A6C00881007F003151F608810F70D2
:10E6BC00102F00E00D931C931197098110E02D9100
:10E6CC003C91200F311F3C932E935524539480E0A2
:10E6DC0090E06624772402E09CCF01E012C0FE019A
:10E6EC0010E0E00FF11F2081FE017396E80FF91F77
:10E6FC00E050F1402083019611E0610E10E0711E94
:10E70C000395083070F4803011E0910744F7FE0156
:10E71C0010E0E00FF11F1081F401E80FF91F1083D6
:10E72C00EACF813001E0900714F0482E01C0442458
:10E73C00552039F00D911C911197601671060CF44F
:10E74C004AC0042D10E004501F4F003021E0120786
:10E75C001CF405E2A02E02C004E2A02E0FE31DE083
:10E76C0023E0015010402040E1F700C000000D9163
:10E77C001C9111976016710634F001E0F6010995B1
:10E78C0008E00EB916C000E0F601099504E00EB9D8
:10E79C0040E050E02A2D8E01055F1F4F06DE40E061
:10E7AC0052E060E070E028E08E01055F1F4F0E9490
:10E7BC0099F080E090E00AC0FE017396E80FF91F13
:10E7CC000081F401E80FF91F00830196042D10E07D
:10E7DC00801791078CF353944A2D052D0E942CFA27
:10E7EC00542E0D911C911197601671060CF428CFC4
:10E7FC006B96EEE00C9470FA00E010E020E030E054
:10E80C000FC0B901462F4BBF43E0F80147BFE89555
:10E81C0047B7542F50FDFCCF00501F4F2F4F3F4F89
:10E82C00003042E0140741E0240740E034074CF389
:10E83C000895B901462F4BBF43E0F80147BFE89557
:10E84C0047B7542F50FDFCCF45E0F80147BFE89582
:10E85C0007B7102F10FDFCCF11E100E0002E17BF01
:10E86C00E89508959A938A93BA018FB38870FB98B0
:10E87C00F999FECF40E050E00FC091E0FB01E40FAE
:10E88C00F51F2080FB01E40FF51F3180FA01010117
:10E89C0097BFE8954E5F5F4F4030E1E05E0768F34D
:10E8AC00C8DF0FB3082B0FBB01E089919991089534
:10E8BC00F801322F3BBF069108950E9465FA28019A
:10E8CC0039014A01C201D3010FC08C019D01F0DF57
:10E8DC00AC019201421B530BF401E40FF51F0083B2
:10E8EC008F5F9F4FAF4FBF4F8201930100501F4F5F
:10E8FC002F4F3F4F80179107A207B30730F3EAE081
:10E90C000C9474FA00E000936E0000E000936F002A
:10E91C0000E00093700000E00093710009E104BD79
:10E92C0000E007BD00E006BD00E0009380000CE0B5
:10E93C000093810000E512E1109389000093880098
:10E94C0000E010E010938500009384000EE000932B
:10E95C00B0000EE20093B30000E00093B60000E0BC
:10E96C000093B20000E000936F0002E0009370008F
:10E97C0008952A931A930A931FB72BB72BBF1FBF67
:10E98C0009911991299118952A931A930A931FB7F3
:10E99C002BB72BBF1FBF0991199129911895BA93C9
:10E9AC00AA93D801AD0100E011E021E030E00E9413
:10E9BC0063F40C910F3F11F400E00C9300E010E0B5
:10E9CC00A991B99108950E946BFADB01F80150816D
:10E9DC005F3F19F401E010E0F7C0222481E090E0E1
:10E9EC0050E002C008965395F8016081561708F064
:10E9FC00E9C0F801E80FF91F6081461751F0F801E2
:10EA0C00E80FF91F6081E62FF0E071968E0F9F1FC3
:10EA1C00EACF019622242394002410C0BC01CB0120
:10EA2C000196F801E60FF71F60811124F901E00D42
:10EA3C00F11D7081671709F022240394041670F3FA
:10EA4C00222081F24C9360E00BC070E0F901E60FDC
:10EA5C00F71F508170E0FD01E60FF71F518363959E
:10EA6C00641798F3F801E80FF91F4081742F60E0E8
:10EA7C0050E040E0FD01418752876387748701961F
:10EA8C009C01C901F801E20FF31F608170E040E0C6
:10EA9C0050E0FD010184128423843484042A152A55
:10EAAC00262A372A018612862386348601969C01F3
:10EABC00C901F801E20FF31F408150E060E0762FAE
:10EACC00652F542F40E0FD0101841284238434848B
:10EADC00042A152A262A372A01861286238634868A
:10EAEC0001969C01C901F801E20FF31F408150E02F
:10EAFC0060E070E0FD010184128423843484042AD4
:10EB0C00152A262A372A01861286238634860196F0
:10EB1C009C01C901F801E20FF31F4081742F60E0E2
:10EB2C0050E040E0FD01458756876787708B019662
:10EB3C009C01C901F801E20FF31F608170E040E015
:10EB4C0050E0FD010584168427843088042A152A98
:10EB5C00262A372A058616862786308A01969C0136
:10EB6C00C901F801E20FF31F408150E060E0762FFD
:10EB7C00652F542F40E0FD010584168427843088CE
:10EB8C00042A152A262A372A058616862786308ACD
:10EB9C0001969C01C901020F131FF801008110E0BE
:10EBAC0020E030E0FD014585568567857089402B56
:10EBBC00512B622B732B458756876787708B00E030
:10EBCC0010E002C003E010E0E4E00C947AFA0E943A
:10EBDC006BFAF80100810F3F19F401E010E05CC002
:10EBEC00002401E010E050E003C0085F1F4F539574
:10EBFC006081561708F04EC0DF01A00FB11F6C9159
:10EC0C00461749F0DF01A00FB11F8C9190E041969F
:10EC1C00080F191FECCF0F5F1F4F0024039480E0E7
:10EC2C0011C0B8018B010F5F1F4FDF01A60FB71F7B
:10EC3C006C9190E0D901A80FB91F7C91671709F06E
:10EC4C0000248395841768F3002079F2102F185F45
:10EC5C00475F012F0FC010E0DF01A00FB11F1C9107
:10EC6C00202F30E050E0241B350BDF01A20FB31F27
:10EC7C001C9303950F3F78F300810A9500834DECAC
:10EC8C0056E000E011E021E030E00E9438F400E0B2
:10EC9C0010E002C003E010E0E4E00C947AFA0E9469
:10ECAC006BFA6197A02F0091D20A005039F00A95A7
:10ECBC0009F444C00A9509F420C366C30091CE0739
:10ECCC000130D9F50091CF071091D30A0117A9F59E
:10ECDC000091D0071091D40A011779F52091D10732
:10ECEC001091D60A012F201741F52091D2070091DF
:10ECFC00D50A201711F50091D307023FF1F40091CA
:10ED0C00D4070B35D1F407EA11E601501040E9F7AE
:10ED1C0000C0000000E010E01A930A934AE855EF97
:10ED2C0061E020E100E011E00E941EF20AEF000019
:10ED3C000A95E9F701E00093D20A26C30091CE07A9
:10ED4C00035009F48AC1025009F4D7C1025009F4E6
:10ED5C00B4C2025039F0025009F47BC0025009F4DD
:10ED6C00BEC212C301E010E00093CC071093CD0794
:10ED7C000AE00093CF080091CD06053020F002E0A8
:10ED8C000093CF0859C0BE014091CF0720ED37E06A
:10ED9C000DEC16E018DE012B21F401E00093CF08F6
:10EDAC004BC000E01BC02091CC073091CD07F9017E
:10EDBC00E353F94F808190E00196ECECF7E0208171
:10EDCC003181280F391F20833183ECECF7E020814F
:10EDDC003181285F3F4F2083318303951091CD06FD
:10EDEC00011708F30091CD0603950093CD0681E041
:10EDFC0090E010C0FC01E253F84F20814091CC0709
:10EE0C005091CD078C01040F151FF801E453F94FF5
:10EE1C00208301960091CD081091CE0880179107A0
:10EE2C004CF34DEC56E000E011E021E030E00E94A4
:10EE3C0038F400E00093D00807E91AE301501040C1
:10EE4C00E9F700C0000022E00FEC18E00E94C9F2C4
:10EE5C009BC200E010E020E030E0EBEDFAE0008334
:10EE6C0011832283338300E010E020E030E0E7EDF3
:10EE7C00FAE00083118322833383BE014091CF07D4
:10EE8C0020ED37E00DEC16E09EDD012B09F07CC285
:10EE9C0060E070E024C0FB01E253F84F828190E007
:10EEAC00C0978C01212F220F220B322F4091CF07BC
:10EEBC00562F451B4A95440F440F0E944EFAEBED1A
:10EECC00FAE00080118022803380000E111E221E79
:10EEDC00331E00821182228233826F5F7F4F00913A
:10EEEC00CF0710E060177107B4F280E090E022C009
:10EEFC002091CF0730E08C01020F131FF801E25371
:10EF0C00F84F028110E020E030E0482F440F440F0E
:10EF1C00440F0E944EFAE7EDFAE040815181628184
:10EF2C007381400F511F621F731F40835183628393
:10EF3C0073830196843000E09007D4F2EBEDFAE095
:10EF4C000081118122813381E7EDFAE0408151810A
:10EF5C0062817381040F151F261F371FEEECFAE038
:10EF6C000083118322833383EEECFAE0008100935B
:10EF7C00DF0A4EEC59E0EEECFAE0008111812281BF
:10EF8C0033810090DF0A1124222433240019110943
:10EF9C00220933090E9463F40091DF0A0093CD0A21
:10EFAC008091CF0790E0069625C000E00093CD0A33
:10EFBC004EEC59E0EEECFAE00081118122813381B4
:10EFCC000090DF0A1124222433240019110922098C
:10EFDC0033090E9438F4EEECFAE0008111812281B1
:10EFEC00338100501F4F2F4F3F4F008311832283DB
:10EFFC0033830196803001E09007ACF4FC01E253BE
:10F00C00F84F20810091CD0A10E0F801E253F64F41
:10F01C0020830091CD0A0F3F40F60091CD0A039555
:10F02C000093CD0AE6CFAA2321F402E00093D20A82
:10F03C00ABC14EEC59E0EEECFAE00081118122817B
:10F04C0033810090DF0A1124222433240019110982
:10F05C00220933090E9438F497C100EC0EB901E083
:10F06C0010E00093CC071093CD0700E01BC020915B
:10F07C00CC073091CD07F901E353F94F808190E033
:10F08C000196ECECF7E020813181280F391F2083A9
:10F09C003183ECECF7E020813181285F3F4F2083F6
:10F0AC00318303951091CD06011708F304E000930A
:10F0BC00CF0801E00BC010E0F801E353F94F2081B9
:10F0CC0010E0F801E153F74F2083039510E02091F5
:10F0DC00CC073091CD070217130768F300E010E05E
:10F0EC001A930A934AE855EF61E02091CC072A95D0
:10F0FC000FEC18E00E941EF247C106E00093CF0807
:10F10C00BE014091CF0720ED37E00DEC16E05BDC43
:10F11C00012B09F0C9C000E010E020E030E0EBED7D
:10F12C00FAE0008311832283338300E010E020E0B7
:10F13C0030E0E7EDFAE0008311832283338380E033
:10F14C0090E060E070E025C0FB01E253F84F0281D3
:10F15C00E02FF0E0F0978F01212F220F220B322F9E
:10F16C004091CF07562F451B4A95440F440F0E94E0
:10F17C004EFAEBEDFAE00080118022803380000E15
:10F18C00111E221E331E00821182228233826F5F77
:10F19C007F4F0091CF0710E060177107ACF260E071
:10F1AC0070E025C02091CF0730E08B01020F131FB8
:10F1BC00F801E253F84F028110E0462F440F440F40
:10F1CC00440F0E9442FA212F220F220B322FE7ED1F
:10F1DC00FAE00080118022803380000E111E221E66
:10F1EC00331E00821182228233826F5F7F4F643024
:10F1FC0000E07007BCF2A0E0B0E014C02091CF0793
:10F20C0030E08D01020F131FF801E253F84F068115
:10F21C0010E04A2F440F440F440F0E9442FA800F13
:10F22C00911F1196A23000E0B00744F307EA11E6F3
:10F23C0001501040E9F700C0000000E00093D00836
:10F24C00EBEDFAE00081118122813381E7EDFAE0E8
:10F25C004081518162817381040F151F261F371F56
:10F26C00EEECFAE00083118322833383EEECFAE0B8
:10F27C00008111812281A801622F813A0FE0900751
:10F28C0010F080EA9FE09A938A9322E00FEC18E04A
:10F29C000E941EF20FE916E821E0015010402040B8
:10F2AC00E1F700C0000070C001E00093D00822E03C
:10F2BC000FEC18E00E94C9F267C008E00093CF0879
:10F2CC004091CF0720ED37E00DEC16E080DC009389
:10F2DC00D00822E00FEC18E00E94C9F255C00E9441
:10F2EC0002F40EE00093CF0800E00093CD0622E07C
:10F2FC000FEC18E00E94C9F247C080E090E01CC0FF
:10F30C0000E00093CD0A4EEC59E0EEECFAE00081FF
:10F31C001181228133810E9438F4EEECFAE00081F5
:10F32C0011812281338100501F4F2F4F3F4F00839B
:10F33C001183228333830196803001E09007ACF473
:10F34C00FC01E253F84F20810091CD0A10E0F80146
:10F35C00E253F64F20830091CD0A0F3F88F60091BF
:10F36C00CD0A03950093CD0AE6CFAA2369F04EECA3
:10F37C0059E0EEECFAE000811181228133810E9488
:10F38C0038F401E00093D20A6196E4E00C947AFA26
:10F39C000CEF0DB900EB0EB90FE714E82EE101509C
:10F3AC0010402040E1F700C000000FEF0EB901E063
:10F3BC0005BF02E005BF0E9446F000E411E00E9488
:10F3CC0073F1A0DA789401E00093D30A02E0009381
:10F3DC00D40A03E010E00093D50A1093D60A80E11A
:10F3EC0090E0A0E00FE31DE023E00150104020402E
:10F3FC00E1F700C000000DEC16E0D1DA45E556EF60
:10F40C002DEC38E00EEC17E00E94EEF2A23009F47D
:10F41C00A1E003EC19E001501040E9F700C0000036
:10F42C00EDCF00008895FECF0FE10DBF0BE00EBFB6
:10F43C00C0E2DEE00E9483FA002311F00E9495FAEC
:10F44C000E94CEF90E9417FA0C9417FA0024E8E0F7
:10F45C00EA9532F0001F001C0416D0F3041AF8CF02
:10F46C00001F402D00950895149F102D059F100D21
:10F47C00049F002D110D08954A951AF0000F111FCD
:10F48C00FBCF08954A951AF016950795FBCF089572
:10F49C004A952AF0000F111F221F331FF9CF089530
:10F4AC00AF93BF93D80101900D9241505040D9F7C2
:10F4BC00BF91AF910895DA92CA92BA92AA929A9297
:10F4CC008A927A926A925A924A92BA93AA939A938D
:10F4DC008A930895DD84CC84BB84AA84998488841F
:10F4EC007F806E805D804C80BB81AA8199818881F0
:10F4FC00F0E0EC0FFD1FEF01089501E0089520E00E
:10F50C0008D0E9F708953BBF27913BB702D0D9F754
:10F51C0008952D9301501040202F212B08950BE8B6
:10F52C00402E05EF502E01E0602EF201362D6BBE01
:10F53C0007911691F201EE5FFF4F3F4F3BBFA79132
:10F54C00B691F201362DEC5FFF4F3F4F3BBF479119
:10F55C0057916691242F252B262B21F0FA01362F5B
:10F56C00D2DF01C0CCDF07E0400E00E0501E601E71
:10F57C00A201662D4939554F6140B8F2089500A09B
:10F58C000940010000004000000199F50102010151
:10F59C000203040205060708030A0B0C0D00000009
:10F5AC00000000000000000000000000000000004F
:10F5BC00000000000000000000000000000000003F
:0DF5CC000000000000000000000000000032
:040000031000E00009
:00000001FF
