:020000021000EC
:04E000000C94C7F8BD
:04E024000C94F1F374
:04E030000C94F0F369
:04E048000C94D1F073
:10E08C0008E20AB901E00093D80000E00093DB003D
:10E09C000093DF000093DE000AE00093E2000EE044
:10E0AC000093E3000BE40093E40000E029D018E8AF
:10E0BC001093EF0003950430C8F304E00093F400D0
:10E0CC0000E00093F5000093F6000FEF0093F700CB
:10E0DC0054D00093F20000E30093F30004E010D05E
:10E0EC0010E01093EF0003950F30C8F302E000939B
:10E0FC00D80000EA0093DB000FE00093DE000895E7
:10E10C00102F1295107F1093ED0008951C0108013B
:10E11C0000E10093ED00000000002FD0042F0295C9
:10E12C00007F000F0093F2008A0143E00E94F5F893
:10E13C000093F30080E090E030E008C00000F001B4
:10E14C00E80FF91F00810093FA00019682179307DC
:10E15C00ACF33093EE003093DB0015D020642093A9
:10E16C00EF0002C096D00EB994D006FFFBCF00EAA8
:10E17C000093DB0008D0C101089500E00093F0008B
:10E18C000093F100089503EC19E001501040E9F7F9
:10E19C0000C000000895BA93AA939A938A93FA93B5
:10E1AC00EA933A922A921A920A927A936A935A931F
:10E1BC004A933A932A931A930A93AFB7BBB7F8943E
:10E1CC0080E0982F9295907F9093ED00000061D0A5
:10E1DC0005FB0EF044C00E70C9F50091F00002FD75
:10E1EC0035C00091F30010E043E00E94EFF820915D
:10E1FC00F20022952F70269530E0020F131F003885
:10E20C0021E0114019F500E80093E1062093E206A5
:10E21C000091EF000F700093E30600E00DC0192F82
:10E22C00102B1093ED002091FA00F0E0E02FE75254
:10E23C00F94F2083000003951091E306011778F342
:10E24C0029ED36E007E511E00E9460F19093ED00B6
:10E25C0008E80093EF001DD0017C0093EE0083953D
:10E26C00843008F4AECF7894BBBFAFBF099119913D
:10E27C002991399149915991699179910990199004
:10E28C0029903990E991F99189919991A991B99134
:10E29C0018950091EE00089520E0F8012183208369
:10E2AC000895F80121810081201711F401E00895EF
:10E2BC0000E008951D01D801119630D0119737D088
:10E2CC00BD01600F711F6E5F7F4F8B012CD01196BB
:10E2DC000C910F770C931E91011729F4012F0395C4
:10E2EC000C930F770C93D10108950E941AF9D80161
:10E2FC00C901D7DF002371F411D019D09D01200F73
:10E30C00311F2E5F3F4F8C010ED00C910F770C9369
:10E31C0001E001C000E0E4E00C942BF94C91042FD7
:10E32C0003950C930895F9014BE00C9403F950E01C
:10E33C000BE010E00C94E7F830E3F8013083218314
:10E34C00428323E040E0F801E20FF41F4083239561
:10E35C002830C8F308950E941AF92B97D801C901E7
:10E36C00BAD0F1F7B4D00033D9F708810F7019F097
:10E37C00025051F0F5CF0981FD0100830A81FC01A7
:10E38C00008300E010E002C00FEF1FEF2B96E4E0DB
:10E39C000C942BF90E9410F92A976801622E4A01FD
:10E3AC00A62E888D998D5524442443947724820F6E
:10E3BC00951D092F00610A838B8340E050E08E018C
:10E3CC000E5F1F4F040F151F461555054CF0BA0173
:10E3DC0066197040F401E60FF71FABBE269104C01E
:10E3EC00F601E40FF51F2081F80122834F5F5F4F88
:10E3FC004630550524F344D03BD0A6E0B0E013C022
:10E40C00F601EA0FFB1F3081F8013083119623953A
:10E41C002830A8F0042D005E0A8332D05A9428D0FC
:10E42C0043940FE04022A817B907E4F4552031F4C7
:10E43C009E012F5F3F4F8E018EDF588021E08E01B1
:10E44C000E5F1F4F020F171DA615B705CCF2AD01BD
:10E45C0046195040F401E40FF51FABBE4691F8018C
:10E46C004083D4CF00E010E02A96E0E10C9421F92F
:10E47C0007EA11E601501040E9F700C000000895CA
:10E48C001FD00E5F01C19A938A932897322F3F7049
:10E49C00388380E090E050E007C0F801E4D0308190
:10E4AC00FE01E1D031830196422F4F7084179507FE
:10E4BC00A4F306D00E948CF0289689919991089526
:10E4CC0040E052E060E070E028E08E010895C1D099
:10E4DC000881007F089507E511E00E9457F10023A1
:10E4EC0008950E9410F96B974801D9015A018E01C9
:10E4FC00055F1F4FF80120E088E021938A95E9F72A
:10E50C00DD2429C0003139F5322F20E02D933C93C6
:10E51C001197098110E02D913C91200F311F3C93F4
:10E52C002E935524539480E090E002E016E0612E87
:10E53C007724FE01E00FF71D10819ED01083019609
:10E54C0003950830B0F304E2C02E41E050E024E221
:10E55C0095D0DD24D394BFDFF1F77BD00D2DDD20DA
:10E56C0019F00A95E1F0F7CF0AEF0EB9288130E0E7
:10E57C002F700881007F31F62D933C9300E009C089
:10E58C00FE01E00FF31F2181F401E00FF31F208344
:10E59C00039518811F70011798F360D057C021E0C4
:10E5AC0007E0600E00E0701E30E001E0FE01E20FBB
:10E5BC00F31F1081913014F45FD002C052D0FA9541
:10E5CC00108301962395283088F38130900714F03E
:10E5DC00482E01C04424552011F048D074F1042D6C
:10E5EC0010E004501F4F113014F405E201C004E296
:10E5FC00C02E0FE31DE023E0015010402040E1F756
:10E60C0000C0000033D024F029D008E00EB909C0B6
:10E61C0000E0F501099504E00EB941E050E02C2D25
:10E62C002DD080E090E010E005C01BD0008124D0FC
:10E63C000083019684159107C4F35394052D4C2D3A
:10E64C000E94D9F8542E12D00CF485CF6B96EEE0C4
:10E65C000DCF9E0107E511E00C947BF101E0F50173
:10E66C000994FE017396E80FF91F08950D911C9102
:10E67C001197601671060895F401F5CF8E01055FB0
:10E68C001F4F5ADE1DDF055F1F4F0C948CF000E00E
:10E69C0010E020E030E02BBF43E0E0E0F12F47BF7B
:10E6AC00E89547B740FDFDCF5ED0003042E014073F
:10E6BC0041E024073E077CF308952BBF43E0F801AB
:10E6CC0047BFE89547B740FDFDCF45E047BFE8950C
:10E6DC0007B700FDFDCF11E1002417BFE8950895A1
:10E6EC009A938A93BA018FB38870FB98F999FECFED
:10E6FC0040E050E091E0FB01E40FF51F0080FB01CE
:10E70C00E40FF51F1180FA0197BFE8954E5F5F4F3C
:10E71C00513088F3D2DF0FB3082B0FBB01E0899186
:10E72C00999108950E941AF9112E1901CA01A80194
:10E73C00B9010FC0FA016BBF2691DA01112DA01B94
:10E74C00B109FC01EA0FFB1F20834F5F5F4F6F4F36
:10E75C007F4F910108D0401751076207730750F3A0
:10E76C00E4E00C942BF900501F4F2F4F3F4F0895AE
:10E77C00A991B991089500E000936E0000936F0089
:10E78C00009370000093710009E104BD00E007BD27
:10E79C0006BD009380000CE00093810000E512E1BF
:10E7AC00109389000093880000E010E0009385002E
:10E7BC00009384000EE00093B0000EE20093B300CF
:10E7CC001093B6001093B20010936F0002E0009308
:10E7DC007000089518951895BA93AA93D801A801BA
:10E7EC007BD40E9498F30C910F3F11F400E00C9332
:10E7FC0000E010E0BDCF0E9417F9622FF8012081D4
:10E80C002F3F11F4B6D158C021E030E070E005C0C4
:10E81C00FD015DD0280F391F7395D801A20FB31FCE
:10E82C007617B0F36C91FA01608360E006C053D0A8
:10E83C0070E0FA014ED1018263957C916717B8F3B1
:10E84C004AD041D0FA0101861286138614862F5FB6
:10E85C003F4FC90134D01080FA015284638451288F
:10E86C005286638624863FD020801124FA0163846B
:10E87C006228638637D030802224FA0133D000809E
:10E88C003324FA01058616861786108A2CD0108040
:10E89C00FA0156846784512856866786208AB2D03E
:10E8AC002080FA01A785A229A787308AF801318137
:10E8BC0010E000E0FA01308BE7E00C9428F9F80145
:10E8CC00E20FF31F0895112422243324089580812C
:10E8DC0090E0099608952F5F3F4FF1DF0080089577
:10E8EC001286238634860196F80189C00E9419F994
:10E8FC00DB01F80150815F3F11F401E07BC061E066
:10E90C0070E050E003C0685F7F4F5395F8010080C2
:10E91C00501508F06EC0DDD00080401529F0802D18
:10E92C00D7DF680F791FF1CFD0D044244394222431
:10E93C000FC00B01CAD0F801E00DF11D008033248B
:10E94C00F901E20DF31D1080011409F04424239405
:10E95C00241678F340FABEF64C930ED106C04ED076
:10E96C005081FD014CD0518383958417C0F3B0D0F6
:10E97C003080FD019187928793873486A6D0CB0196
:10E98C00A7D06081FD012384262AABDF508160E093
:10E99C00FD0112842384152AA3DF4081FD0101842B
:10E9AC0012842384042A01869BDF7081FD01658714
:10E9BC0066876787708B97DF6081FD012784262A25
:10E9CC002786708B1FD05081FD0116842784152A51
:10E9DC0016862786708BF801018110E0FD014585B4
:10E9EC0056856785402B458756876787708B00E077
:10E9FC0002C003E010E0E5E00C942AF9F901E80FFD
:10EA0C00F91F08950196080F191FF80108950E9427
:10EA1C0012F9619758012A013B010D8D1E8D2F8D26
:10EA2C0038A18824CA01DB01800F911FA21FB31FDC
:10EA3C0081509040A040B04001C08394F50100810A
:10EA4C008016A0F5AE01282D8501D5DE012BA9F786
:10EA5C00002439DF60E070E009C0FE013AD001818A
:10EA6C00F3D24881461BEBD2DCD22FD0088110E0C8
:10EA7C006017710794F309851A852B853C85CCD2D8
:10EA8C000150D7D21DD028F00415150526053705E1
:10EA9C0058F480159105A205B30510F00CD020F4A4
:10EAAC000FD058F608D048F601E001C000E061969E
:10EABC00E0E10C9423F9081719072A073B0708957E
:10EACC00401451046204730408956F5F7F4F0895DE
:10EADC00F801E60FF71F08950E941AF9D8010C915E
:10EAEC000F3F47D009F442C050E003C0085F1F4FEE
:10EAFC0053956C915617C0F5FD01E00FF11F608125
:10EB0C00461729F0862FE4DE080F191FF1CF0F5F8F
:10EB1C001F4F0024039430D00CC0B8010F5F1F4F5F
:10EB2C00FD01D7DF60816ADF7081671709F000246F
:10EB3C008395841790F300FACEF6475F085F0CC0FC
:10EB4C00FD01E00FF91F1081202F30E0241B304015
:10EB5C00FD01B6DE108303950F3F91F70C910A95DA
:10EB6C000C93B5D200E001C003E010E0E4E00C949B
:10EB7C002BF901E010E0089580E090E008950E94E8
:10EB8C000EF96197402E4091E407A0E0B1E00091AE
:10EB9C001501002331F00A95E1F10A9509F4F6C14B
:10EBAC0006C20091E307013009F001C20091040193
:10EBBC00401709F0FCC10091E50710910501011700
:10EBCC0009F0F5C1FD01268107814091E607401748
:10EBDC0009F0EDC10091E707021709F0E8C10091B7
:10EBEC00E807023F09F0E3C10091E9070B3509F092
:10EBFC00DEC10AD200E00A930A934CEE52EF61E0B8
:10EC0C0020E157968D01F5D10AEF00000A95E9F73E
:10EC1C00CBC10091E307035009F4FAC0025009F488
:10EC2C0023C1025009F49FC1025039F0025009F47B
:10EC3C0095C0025009F49FC1BAC13CD20AE0E1D19F
:10EC4C0004EE402E06E0502E0091E406053020F034
:10EC5C0002E00093E30875C0BE0125EE37E08201A7
:10EC6C0045DE012B11F401E0F4CF2AD2CC24DD24B3
:10EC7C00EE24FF24882499246091E407662E7724DF
:10EC8C000AC0AAD1E80DF91DBAD1DED1462F481918
:10EC9C00FFD1800E9C1C86169C049CF360E070E0F7
:10ECAC009B01260D371D98D10BDEA9D120E030E059
:10ECBC00462FC3D1C00ED11EE21EF31E06DF6430F8
:10ECCC00770574F3FA92EA92DA92CA92FD014485BE
:10ECDC0055856685778582019ADE002311F003E065
:10ECEC00B8CF20E00DC0FA01EC51F94F008110E0D3
:10ECFC00075F1F4FFD01400F511F408B518B239518
:10ED0C00FD01408951890091E406201760F3F2015E
:10ED1C00039500832EDF0CC0F801ED51F84F2081D4
:10ED2C00B801640F751FF201D4DE22930F5F1F4FE1
:10ED3C00FD01228933890217130774F3C8D170922D
:10ED4C00E30807E91AE301501040E9F700C000009E
:10ED5C0022E002EE18E00E9449F229C10024FD01D4
:10ED6C00048605860686078600860186028603864B
:10ED7C0036D109F01CC1662477245091E40770E069
:10ED8C0008C02AD1E60DF71DACD1461981D1600E11
:10ED9C00771E65167706ACF3EFDE8C01050F171F97
:10EDAC002AD120E030E0482F48D1FD0100841184A5
:10EDBC002284338436D100861186228633860196CE
:10EDCC008430970754F3FCD027D1F5D0068B41EE55
:10EDDC0059E0139700E00E9498F3009116010093FC
:10EDEC0014018091E40790E0069604C07ED11ED1F8
:10EDFC0032D10196913024F43ED1C1F337D1F9CF01
:10EE0C00442011F402E0D1C0E0D010D163D1CFC0C6
:10EE1C0000EC0EB94FD100E00AC0F901EC51F94FEA
:10EE2C0056DDFD01280F391F208B318B039520896E
:10EE3C0031891091E406011780F304E0E2D099DEE9
:10EE4C0009C0F801EC51F94F4081F801EE51F74F30
:10EE5C004083039502171307A0F31A931A934CEEF1
:10EE6C0052EF61E0C4D0A3C006E0CBD0B8D009F01B
:10EE7C0076C026D1008701870287038760E070E0A7
:10EE8C0023DD5091E407112416C0A6D0E20DF31D2A
:10EE9C0028D14219D4D0FD014484558466847784EA
:10EEAC00400E511E621E731E4486558666867786FA
:10EEBC0001E0200E361E251636063CF305DD8101D9
:10EECC00050F161F98D0422DF0D0212F220F220BA8
:10EEDC00FD014084518462847384400E511E621E75
:10EEEC00721E408651866286738601E0200E361EA5
:10EEFC0004E0201636061CF320E030E08901050FF3
:10EF0C00111D6AD0E00FF11F068110E0422FCDD009
:10EF1C00600F711F2F5F3F4F223031057CF374D08F
:10EF2C001092E308FD014CD0040D151D261D371D54
:10EF3C0042D0613A3FE0730710F060EA7FE07A93C9
:10EF4C006A93A801622F22E052D00FE916E821E063
:10EF5C00015010402040E1F700C0000028C001E043
:10EF6C000093E308F5CE08E04CD025EE37E004EE34
:10EF7C0016E0B2DDF5CF0E944DF318E00EE041D063
:10EF8C0000E00093E50622E002EEE5CEF5DD73D05D
:10EF9C0011F06CD002C0A9D05ED001969130BCF3B8
:10EFAC00442029F012D096D001E00093150161960F
:10EFBC00E0E10C941FF90D931D932D933C93089550
:10EFCC000485158526853785089541EE59E00D9108
:10EFDC001D912D913C910895E3EEF7E00895BE014B
:10EFEC0025EE37E004EE16E081DC012B089502EEED
:10EFFC0018E00C94D0F1E3EEF7E0E00FF11F028182
:10F00C00B9CD0093E208089507EA11E601501040CB
:10F01C00E9F700C000000895000D111D221D331DDD
:10F02C000895000E111E221E331E08950090160125
:10F03C0000191040204030400895440F01C04A95FB
:10F04C00440F440F0C94FBF800531040212F220F57
:10F05C00220B322F08953ED0BADF00501F4F2F4F96
:10F06C003F4F3C932E931E9311970895FD010489F5
:10F07C000395048B089500911401FC01ED51F84F98
:10F08C002081F0E0E02FEF51F64F20830F3F0895E1
:10F09C00D6DFFD010484158426843784C2DF048600
:10F0AC0015862686378601E00895440F440F440FD9
:10F0BC000C94EFF801E010E0FD01008B118B08952A
:10F0CC0000E0FD010487058706870787089544EE55
:10F0DC0056E002D00C9476F300E011E021E030E031
:10F0EC0008958DDFB1DF452F089500E000931401E2
:10F0FC006CDF139708950CEF0DB900EB0EB90FE709
:10F10C0014E82EE1015010402040E1F700C000004F
:10F11C000FEF0EB901E005BF02E005BF0E9446F0FB
:10F12C0007E511E00E9452F126DB7894A6E0B1E0ED
:10F13C0001E00093040102E00093050103E010E0FC
:10F14C000D931C930FE31DE023E001501040204071
:10F15C00E1F700C0000004EE16E03EDB45EC55EF95
:10F16C0022E131E003EE17E00E9477F203EC19E0A4
:10F17C0001501040E9F700C00000F0CF0000889566
:10F18C00FECF0FE10DBF0BE00EBFC0E2DEE00E9430
:10F19C0034F9002311F00E9446F90E9481F80E9474
:10F1AC00C4F80C94C4F80024E8E0EA9532F0001F8F
:10F1BC00001C0416D0F3041AF8CF001F402D009544
:10F1CC000895149F102D059F100D049F002D110DF7
:10F1DC0008954A951AF0000F111FFBCF08954A9518
:10F1EC001AF016950795FBCF08954A952AF0000F53
:10F1FC00111F221F331FF9CF0895AF93BF93D8016E
:10F20C0001900D9241505040D9F7BF91AF910895A4
:10F21C00FA92EA92DA92CA92BA92AA929A928A9242
:10F22C007A926A925A924A92BA93AA939A938A932E
:10F23C000895FF84EE84DD84CC84BB84AA849984F5
:10F24C0088847F806E805D804C80BB81AA8199818F
:10F25C008881F0E0EC0FFD1FEF01089501E00895A7
:10F26C0020E008D0E9F708953BBF27913BB702D0C7
:10F27C00D9F708952D9301501040202F212B08957C
:10F28C000DEE402E02EF502E01E0602EF201362DD5
:10F29C006BBE07911691F201EE5FFF4F3F4F3BBFE4
:10F2AC00A791B691F201362DEC5FFF4F3F4F3BBF5C
:10F2BC00479157916691242F252B262B21F0FA018B
:10F2CC00362FD2DF01C0CCDF07E0400E00E0501E2D
:10F2DC00601EA201662D4B3F524F6140B8F208955B
:10F2EC00008909570100000057000001FBF20100E2
:10F2FC000000000000000000000000000000000002
:10F30C0000000000000002010102030402050607D0
:10F31C0008030A0B0C0D00000000000000000000A8
:10F32C0000000000000000000000000000000000D1
:10F33C0000000000000000000000000000000000C1
:06F34C00000000000000BB
:040000031000E00009
:00000001FF
