:020000021000EC
:10E000000C9472FC189518951895189518951895F4
:10E010001895189518951895189518951895189598
:10E02000189518950C94ECF818951895189518955E
:10E030001895189518951895189518951895189578
:10E0400018951895189518950C94C9F01895189569
:10E050001895189518951895189518951895189558
:10E060001895189518951895189518951895189548
:10E070001895189518951895189518951895189538
:10E0800018951895189518951895189508E20AB9D5
:10E0900001E00093D80000E00093DB000093DF0074
:10E0A0000093DE000AE00093E2000EE00093E3003C
:10E0B0000BE40093E40000E02FD014E01093F40090
:10E0C00010E01093F50010E81093F6001FEF109386
:10E0D000F70010E01093F0001093F10010EC109393
:10E0E000F20016E61093F30018E81093EF00039582
:10E0F000043010F304E010D010E01093EF0003950B
:10E100000F30C8F302E00093D80000EE0093DB006C
:10E110000FE00093DE000895102F1295107F1093EA
:10E12000ED0008951C010801F89400E10093ED0052
:10E1300000000000C3D0042F0295007F000F009361
:10E14000F2008A0143E00E94BAFC0093F30080E0F1
:10E1500090E030E008C00000F001E80FF91F0081F6
:10E160000093FA00019682179307ACF33093EE0008
:10E170003093DB0020642093EF0001C00000009189
:10E18000EE0006FFFBCF00EA0093DB007894C101AC
:10E190000895BA93AA939A938A93FA93EA933A9238
:10E1A0002A921A920A927A936A935A934A933A93CA
:10E1B0002A931A930A93AFB7BBB7F89480E0982FCD
:10E1C0009295907F9093ED0000000091EE0005FB8A
:10E1D0000EF05AC00E70D9F50091F00002FD37C064
:10E1E0000091F30010E043E00E94B4FC2091F200A3
:10E1F00022952F70269530E0020F131F053323E080
:10E20000120719F00633120711F500938A061093CE
:10E210008B060091EF000F7000938C0600E00DC09C
:10E22000192F102B1093ED002091FA00F0E0E02F51
:10E23000EE57F94F20830000039510918C060117CB
:10E2400078F322E836E000E011E00E94C9F19093F3
:10E25000ED0004E00093F40000E00093F50000E816
:10E260000093F6000FEF0093F70028D000EC009326
:10E27000F20006E60093F30008E80093EF00009137
:10E28000EE00017C0093EE008395843008F497CF74
:10E290007894BBBFAFBF09911991299139914991E8
:10E2A0005991699179910990199029903990E99142
:10E2B000F99189919991A991B991189500E00093EC
:10E2C000F0000093F1000895BD01D801F90101812A
:10E2D000013011F000E023C0028110E044E00E9410
:10E2E000B4FC238122952F7030E0020F131F0D9391
:10E2F0001D933D933D9303810F700D9304810D9306
:10E30000058102950F700C93169725812F70568109
:10E310004781FD01478350872187328701E0DB0178
:10E320000895BD01D8014D915D9112978A0144E095
:10E330000E94BAFCF90101834D9111974295407FEB
:10E34000FD0104810F70402BF9014283FD0105811D
:10E35000F9010383FD0106810295007F4185042BAD
:10E36000F9010483FD014085F9014583FD014781E1
:10E37000F9014683D4CF20E0F8012183208308955A
:10E38000F80121810081201711F401E0089500E0D7
:10E3900008951D01D801119630D0119737D0BD01D5
:10E3A000600F711F6E5F7F4F8B012CD011960C9107
:10E3B0000F770C931E91011729F4012F03950C93ED
:10E3C0000F770C93D10108950E94E7FCD801C90191
:10E3D000D7DF002371F411D019D09D01200F311F18
:10E3E0002E5F3F4F8C010ED00C910F770C9301E004
:10E3F00001C000E0E4E00C94F8FC4C91042F03957C
:10E400000C930895F9014BE00C94D0FC50E00BE024
:10E4100010E00C94ACFC2027322F3295307F23275C
:10E42000012F10E0602F022F02950F706027022F3E
:10E4300043E00E94B4FC0627122708950E94DFFCE7
:10E44000280139014A015B014FEF5FEFC801D90193
:10E450000AC0FC01ABBF26918A01DDDFA8018F5FF6
:10E460009F4FAF4FBF4F82019301080D191D2A1D09
:10E470003B1D3FD270F38A01ECE00C94F0FC0E944B
:10E48000E5FC27972801DBD0002319F40FEF1FEFDD
:10E490001FC090E080E017C0482FACD21DD0CAD07A
:10E4A000CDDFFD01208531850217130759F00FEFED
:10E4B00008839E0182010E9491F127E08E010E9453
:10E4C000AAF59FEF8395BBD0801730F3092F10E09A
:10E4D0002796E6E00C94F6FCFD01448155816681A7
:10E4E0007781089500E00093BF0608959FD0E0E093
:10E4F000FEED31E03BBF06910093BF060F3F29F4CC
:10E50000E093BF060FEF1FEF34C080E090E02BC018
:10E51000182F0CE0109F202D0AE010E0AC0188D0ED
:10E520006BD2422F50E060E04F5F24D04D935D935B
:10E530006D937C931397422F50E060E04B5F1AD0AD
:10E54000FD014483558366837783022F10E020E02A
:10E55000075F11422E4FF8012BBF07911691FD0165
:10E560000087118701966BD010E08017910784F225
:10E5700000E059C051426E4FFA016BBF479157916D
:10E5800067917691089552D0DA9559D0088381E049
:10E5900040E050E018C055D1DE01A80FB51F4AD0A9
:10E5A0000D931D932D933D9335D10D931D932D9375
:10E5B0003C93179700851185FD01008711875287CD
:10E5C0005387845F43953BD0401728F390E00FEFCB
:10E5D000FE0102D29130DCF308D00E9480F8AE0137
:10E5E00004D00E9498F8D3951EC000E01EED21E0F3
:10E5F00030E008951BD0C801D90140E050E002C0CE
:10E600004F5F5F4F1CD010E04017510754F40AE0F1
:10E610000FD0F801E357F94F0DD00DD189F78A01DA
:10E6200002C00FEF1FEFE4E00C94F8FC0C94E7FC41
:10E630000C94ACFC008111812281338108950091FA
:10E64000BF060895F3DFB80180E090E0A0E0B0E0FD
:10E65000F8010181053611F0053409F4B1E003E059
:10E66000002E112419C00156063090F40081075580
:10E670001040212F220F220B322FFB014081401925
:10E68000440F440F0E94C0FC800F911FA21FB31FB4
:10E6900001E0000E00E0101EFB01008110E00015FB
:10E6A00011057CF0E00DF11D008100530A3000815E
:10E6B00010F40053DDCF015406300081A0F607535B
:10E6C000D7CF8C019D01AFCF0E94DBFC21972801A1
:10E6D00039016A017B01812E922E442311F041E021
:10E6E00001C040E0052F162F50E0040F151F2091A8
:10E6F000BF06253008F083C05883C201A62DB32F72
:10E700008C0D9D1DA61FB71F81509040A040B040AA
:10E710005401A00EB11E0FEFA00EB01E22C000804B
:10E720001180228033803016C8F06FD028F072D06C
:10E7300079D0DAD008F04BC080159105A205B30559
:10E7400018F06DD008F043C060D010F468D0F8F134
:10E75000813000E19007A507B507C8F5042F0395A0
:10E76000088308811091BF06011798F5402F68D0E3
:10E7700001E07016A0F6518162817381713070F7EB
:10E78000048105801681002311F021E001C020E002
:10E79000002D30E0020F131F050F161F015010400F
:10E7A0008516960618F00515160588F4A516B60602
:10E7B00018F00A151B0558F48516960618F40A1564
:10E7C0001B0528F00EEDA01601E0B00638F203E0BC
:10E7D00017C04091BF0634D040825182628273825A
:10E7E000C482D582E682F78209891A890087118757
:10E7F000EFEBF6E000810395008300E001C002E04A
:10E8000010E02196E2E10C94ECFC40145104620407
:10E810007304089504811581268137810895FADFF4
:10E8200001D009C0000D111D221D331D01501040E3
:10E83000204030400895081719072A073B0708951C
:10E8400050E0DFD0EDE8F6E0E00FF11F08950E9400
:10E85000E0FC28013901AA2401C0A394F0DEA0162F
:10E86000F0F54A2D50E00AE010E0E2DE2DE8822EBD
:10E8700026E0922E800E911EF401DCDE35D069F781
:10E8800001E07016B8F4952DD30180E009C000E0D6
:10E89000192F9D010E9480F880509F4FAF4FBF4FAE
:10E8A000F4011BDE82019301040F151F261F371F81
:10E8B00020D068F3A3942A2D0AC0422FC1DFBF01E4
:10E8C0006A5070408B014AE00E94D0FC2395B7DE6D
:10E8D000201798F30A950093BF0600E001C001E0FD
:10E8E00010E0EBE00C94F1FC041515052605370546
:10E8F000089580179107A207B30708950E94DFFCCF
:10E900003801590181E090E0882429C0295AF30197
:10E91000E20DF31D20836F5F7F4F683000E07007CA
:10E9200074F1002039F403E056D006E65ED059D0E9
:10E9300000E351D02301480E591EFD016BDFF201A7
:10E940000083118322833383C7DD40D077DD20E04D
:10E95000F2010483158326832783089683946FDE50
:10E96000801680F5482D46D013960C91139700FF22
:10E9700002C055E601C056E6002462E070E04CE1BA
:10E98000062F000F000F401B21D013970E94C8FCD8
:10E99000202F2F7069F0002059F4002403940AE01E
:10E9A000061B19D0F301E80FF91F50831AD003C0DA
:10E9B000002009F4B0CF1C0101962A3008F0A6CF40
:10E9C000205DA5CFF5018083918356CD0D911D91DA
:10E9D0002D913C910895F301E80FF91F00830196F2
:10E9E000089501960FE201D0FACFF301E80FF91F65
:10E9F0000083089550E005D0ADE8B6E0A00FB11F48
:10EA000008950AE010E014CE0E94DBFC65970883AD
:10EA10001983C22ECA01A62FF32E2DA13EA108E014
:10EA2000C01638F4022F032B21F42C2D088192D02C
:10EA30007EC0DD246624639429014C0C5D1C052DE9
:10EA400000610A834B8200241124BE016E5F7F4F58
:10EA5000600D711D0C141D0484F0212C220C220861
:10EA60008C012A2F000D111D221D6AD011F065D0D6
:10EA700009C0F8012BBF069105C0E881F981E00DBE
:10EA8000F11D0081FB010283060C1D1C06E000162F
:10EA90001D04DCF25AD006E0802E992417C0E881CC
:10EAA000F981E80DF91D0081FB01008301E0800E72
:10EAB00000E0901EE39408E0E01600F1062D005EF1
:10EAC0000A8343D0DA9463940FE06022841495049F
:10EAD00074F5DD2089F44AD1F1F79E01265F4CD10F
:10EAE0000A85007F0033B9F70A850F7019F00250CC
:10EAF00011F0F1CF7B84D72CEE24E394BE016E5F3E
:10EB00007F4F10E06E0D711F8C14910644F2A92CFA
:10EB1000AA0CAA088C012A2F080D191D2A1D10D035
:10EB200011F00BD0C1CFF8012BBF0691BDCF00E093
:10EB300010E06596E2E10C94ECFCA8010C948EFCCC
:10EB40000C1910402040FF2008952FD10E5F1F4F59
:10EB50000C9492F09A938A932897322F3F703883BF
:10EB600080E090E050E009C0F801E80FF91F308123
:10EB7000FE01E80FF91F31830196422F4F70841771
:10EB8000950794F310D128968991999108950E9440
:10EB9000DBFC63977801C9015A01FE0120E0A8E07F
:10EBA0002193AA95E9F7CC24A7E1B8E03AC0003157
:10EBB000C1F500E0E6D0102F00E0FC0100831183D6
:10EBC000098510E020813181200F311F208331839E
:10EBD000772473944424552422E006E0802E99245F
:10EBE000FE013896E20FF11FD8D0470C511EB8D065
:10EBF000B8F303E2D02E00E30883D9821A8323E01E
:10EC0000FE01E20FF11F1083ABD0D0F300E011E062
:10EC10000E94BBF1C8D0CC24C394FD01948295829C
:10EC20006624A4D009F07EC09E01285FA5D00C2DDB
:10EC3000CC2019F00A9501F1F4CF0885007F09F086
:10EC4000B6CF00E010E09DD0FC010083118300E00E
:10EC50000BC0FE01389610E0E00FF11F2181F70193
:10EC6000E00FF11F2083039518851F70011788F3AB
:10EC7000188579D000E071C000E010E0FD01048348
:10EC800005830283038363940FE0602208850F707D
:10EC9000061571F002E3088319831A8303E0FE016D
:10ECA000E00FF11F10830395083008F054C0F7CF30
:10ECB00021E0FE01389630E0E20FF31F6ED001E054
:10ECC000400E531E800E931E62D014F449D088F378
:10ECD000772019F080169106DCF004E2D02E008136
:10ECE00080169106142D14F03ED010C000E0F501FE
:10ECF000099500E30883D98200E00A8323E0FE013E
:10ED0000E20FF01F00832CD0D0F34DD044245524C3
:10ED10007394072D4D2D0E949EFC742E38D00CF458
:10ED200080CFA8CF01E0C01609F07BCFFD01248180
:10ED30003581213D374008F474CF02E3088300E0B9
:10ED400009830A8303E020E0FE01E00FF21F208325
:10ED500003950830C8F327D001E06396E0E1EBCEDD
:10ED600023952830089501E0F501099400E011E0B1
:10ED70000E94C0F1002308953F4F00E011E00C9481
:10ED8000E4F1FD010283038308850F700895FC01FF
:10ED9000008111818016910608950081F701E40D2C
:10EDA000F51D0083089501D0D3CE47E353E060E022
:10EDB00070E028E08E010895F0D0EAD0069100932B
:10EDC00000080F3F11F4E093000812D10B5F00839D
:10EDD000E0ECF6E000EC008302E010E00183128337
:10EDE0001383148301EC058302E0068317831087E5
:10EDF000118702EC0287138714871587168703ECA7
:10EE0000078704E0008B118B128B138B04EC048BAF
:10EE100004E0058B168B178B108F85E090E01FC0E8
:10EE2000FC01359745E050E08F012CD19801E9D0E5
:10EE3000AC0128D1A0ECB6E0A00FB11FA90160E0A1
:10EE4000890120E00F5F104295D0FD0100834E5FE5
:10EE500096D0FD0141835283638374830196C5D0AC
:10EE600010E080179107E4F200E081C096D0DA95B7
:10EE7000BCD00550088381E090E045E050E012C02E
:10EE800005E0BBD0DE011ED10181128123813481D6
:10EE9000FE01E80FF91F0083118322833383049658
:10EEA0004F5F5F4FA2D010E0401751074CF3DC01D9
:10EEB00006C00FEFFE01EA0FFB1F00831196B13071
:10EEC000C4F308D00E9480F8AE0104D00E9498F8E4
:10EED000D3954DC000E01FED21E030E008955DD0F6
:10EEE000202ED901005C49F00A9539F00A9569F0A5
:10EEF0000A9591F00A9581F011C002E010E00D939F
:10EF00001D931D931C9300E032C000E010E00D93B0
:10EF10000D930D930C932BC004E0F0CF39D03690B5
:10EF20000FEF301619F181E090E001C00596432DF6
:10EF300050E0A7D008171907A4F0AC01692F660F9D
:10EF4000660B8C01262F0050114214D0021571F768
:10EF50004F5F15D04D935D936D937C9300E010E06F
:10EF600006C05D935D935D935C930FEF1FEFE4E04C
:10EF70000C94F8FC2E4FF8012BBF069108955042D7
:10EF80006E4FFA016BBF4791579167917691089543
:10EF9000E0E0FFED31E03BBF08950C94E7FCFDDFBE
:10EFA000202FCA01DB0167D002C04F5F5F4F4617B9
:10EFB000570734F421D00217C1F712D000E00EC079
:10EFC00014D0023350F41DD0AB015CD01DD020838F
:10EFD00007D00ED003950083F1CF02E010E0C7CF39
:10EFE00081839283A383B4830895009100080895D8
:10EFF000E0E0F8E00081089504D00E94ACFC04D069
:10F00000F9CF05E010E00895E0ECF6E0E00FF11F25
:10F0100008959A938A93202F2ED002C04F5F5F4F9E
:10F02000461757071CF52DD0F801E054F94F008121
:10F030000217A1F7CA0110C045E050E08C0122D0B0
:10F0400020EC36E0200F311F19012B5F3F4F81016B
:10F05000F9010E94D0FC0196FB0131978E179F07A2
:10F060005CF3C6DF0A95008300E001C002E010E017
:10F0700089919991089540E050E06091000870E016
:10F080000895BFDF0C94ACFC88DFB80181E090E00C
:10F0900040E050E010C0B0DFDB0114D001801280EE
:10F0A00023803480FB01E80FF91F00821182228245
:10F0B00033820496439599DF401768F3F901808302
:10F0C000918355CFA80FB91F0C930196089500E0C6
:10F0D00010E020E030E02BBF43E0E0E0F12F47BF3D
:10F0E000E89547B740FDFDCF00501F4F2F4F3F4FD2
:10F0F00001304EED140741E024073E0764F3089504
:10F100002BBF43E0F80147BFE89507B700FDFDCFEF
:10F1100008951BB62BBF45E0F80147BFE89507B738
:10F1200000FDFDCF11E1002417BFE8951BBE089537
:10F130009A938A93F894FB98F999FECF80E090E037
:10F1400061E0FA01E80FF91F0080FA01E80FF91FEA
:10F150001180FC0167BFE8950296913090F3D9DFEA
:10F16000789401E089919991089508E101D000E037
:10F17000009360000895BA93AA932497A3D30F3FF6
:10F180001F4F19F08FD350D261F4EAE0F1E04491BF
:10F19000E9E0549160E070E003E80E94CFF70E943C
:10F1A00036F700E00093DB0000936F0000937000DF
:10F1B00001E005BF00E005BFD8DF00E81FEFEAE48B
:10F1C000F0E000831183AEE3B8E0ED91FC91099586
:10F1D0002496A991B99108959A938A93FA93EA9300
:10F1E0003A922A921A920A927A936A935A934A937B
:10F1F0003A932A931A930A938FB79BB7F89400E037
:10F2000012E0019FE1E0F8E0E00DF11D2689378969
:10F2100020361AEE310720F42F5F3F4F268B378BB5
:10F2200003950A3068F30091190810911A08083EF6
:10F23000134060F000E00093190800931A0801E001
:10F2400018E00E943FF2012BA9F495DF78949BBF50
:10F250008FBF0991199129913991499159916991DA
:10F2600079910990199029903990E991F9918991B2
:10F2700099911895EFD10000FECF0E94E3FC702E0B
:10F28000612E15D300913A080A9539F00A9509F4D0
:10F2900038C10A9509F45AC168C100E4402E08E05B
:10F2A000502E009140080A9509F4DDC0025009F47F
:10F2B00079C0025009F483C0025009F4ABC0025077
:10F2C00079F0025029F1025009F4AEC0025009F45D
:10F2D000B2C0025009F4C1C0025009F4F9C045C1DE
:10F2E00001E468D176D1F20160D106801780EAE0AE
:10F2F000E0933F091A920A920E9464F353D100E00E
:10F300001EED21E030E00E9480F80E94C3F2A2C00E
:10F3100077D109F42AC15DD1FD013FD1313053D1FC
:10F3200080F54BD102A713A724A735A702AF802FE2
:10F3300090E01FEF2ED1108301969130DCF3009303
:10F3400039084A5F5F4FCA0105C01093390864D17C
:10F3500075D1019612D15CF40091390897D12081C2
:10F36000F80118D120830F3F81F33DD1F2CF7720F0
:10F3700011F402E0F9C050D16BD190D200E012D16B
:10F3800069C01BD17ED14A5F5F4FCA0101C068D1FD
:10F39000F4D0ECF3772011F403E0E6C07FD21093B1
:10F3A000400958C004E07BD227E338E00FE319E0BE
:10F3B0000E947EF48BD2FD0126A96CD2D6C006E055
:10F3C0006ED21ED129F10091410810E0400E511E6D
:10F3D000F20106811781FD0106AB17AB00E0E2D018
:10F3E000DCD0F1D0A801B901400D511D621D731D83
:10F3F000FD0142A753A764A775A7313010F031E093
:10F4000001C030E006A917A91A930A9322E0D5CFCC
:10F4100001E0B5CF08E043D201E4CCD00E9427F44C
:10F42000DED00E94C3F2A1C00E9467F80EE037D27E
:10F430000E9472F20FC000E1A4D050F7E0E4F8E0BF
:10F44000B4D00E94CFF7AED000914009002311F450
:10F450000E9436F722E01AD288C002E192D0C0F6AC
:10F460000E9409F8F0CF20E438E008D2FD010385BE
:10F47000148525853685408151816281738178D0DC
:10F4800011F0D2D011F507851481011711F0002376
:10F49000E1F401891681011711F00023B1F402890A
:10F4A000138924893589478150856185728560D0AB
:10F4B00011F0BAD051F4009111081091060801170B
:10F4C00009F453C0002309F450C0C4D00000FECF9B
:10F4D00004E1E5D100914108002319F00A9579F083
:10F4E00044C08D010E943FF2012B21F4A1D0CFD165
:10F4F00042DE3BC001E073D0ADD00000FECF03E0A0
:10F500003ECF80E090E005C05093390871D096D08E
:10F5100001960091390850E08615950754F4B6D04D
:10F520001081E02FF0E036D010830F3F69F35BD0FD
:10F53000EFCF7720D1F0802F90E00FEF2AD000831B
:10F5400001969130D4F354D083D008C080E090E08D
:10F5500001C086D012D0ECF3772039F019E09ED1AB
:10F5600067D00E94AAF501E086D1E8E00C94F4FC93
:10F570000417150726073707089510E08615910729
:10F58000089500933F0900914108102F1A951F37E5
:10F590000895FC01E25CF54F089502A913A924A97E
:10F5A00035A90895009340090895428153816481EB
:10F5B0007581089518E00C9422F3000D111D221D91
:10F5C000331DFD010895F2010280138024803580EF
:10F5D00008954091410850E0440E551E089500934F
:10F5E000400922E053C1FD0100AD039500AF08952D
:10F5F0004EE35AE0FD0102A513A524A535A5089503
:10F6000001E4D8DFFD0102AB13AB24AB35AB0E94A4
:10F61000FAF20F3F1F4F0895EBDF00903B080019EF
:10F620001040204030400895012B022B032B0895F9
:10F6300000E00093400922E00FE3089509D0DADFEB
:10F6400000501F4F2F4F3F4F13A724A735A70895F2
:10F650000C9498F80091600008618ADD0EE088CD76
:10F66000FD0146A557A58A0120A931A90F5F1F4FAB
:10F670002F4F3F4F06D00AD000810E949AFC01967E
:10F68000089506A717A720AB31AB0895FC01E05CF5
:10F69000F74F08956197F8940AD101E005BF02E0A1
:10F6A00005BF0E9446F063DDEDD000E000938000CE
:10F6B0000CE00093810000E512E1109389000093B3
:10F6C000880000E010E000938500009384000EE0C5
:10F6D0000093B0000EE20093B3001093B6001093B5
:10F6E000B20010936F0002E00093700078940E94C3
:10F6F00072F20FE31DE023E0015010402040E1F7DB
:10F7000000C000000E9476F20E94DCF69E0101E833
:10F71000D5D0198120E00D931D932D932C93139731
:10F720009E0106E8CBD0009305089E0105E8C6D0EF
:10F7300000930708C7D0B6D0FD0107831087218743
:10F7400032879E0102E8BAD00093060800E093D009
:10F7500005C000913A08002309F06AC000E011E0FA
:10F760000E94C0F10023A9F700913A08002389F70D
:10F770009E012A5F3F4F00E011E00E94E4F19E01EC
:10F780002A5F3F4F7BD0002349F300E0FD01438512
:10F7900054856585768569D011F401E007C00D9028
:10F7A0001D902D903C9013975BD0C1F617851123C7
:10F7B00011F401E003C02481121781F6118911238D
:10F7C00011F401E003C02681121741F642895389E2
:10F7D000648975894AD011F401E007C0078010845C
:10F7E000218432843DD009F0B9CF1089112371F101
:10F7F0002581121709F0B2CF00FB46F10FE916E898
:10F8000021E0015010402040E1F700C0000000E07E
:10F81000008F018F37D002E042D09E012C5F3F4F16
:10F820000FE319E00E9444F851D02E8133D022D04A
:10F830004DE359EF2CE338E000E418E00E94C7F5EF
:10F84000013011F41FD016D0A895F2CF00E027D0D8
:10F850002FE339E08D010E9491F127E017D07ECF90
:10F8600040155105620573050895142F152B162BAD
:10F87000172B089501E000933A0808950CE018E072
:10F880000C9464F100E011E00C94BBF10FE319E07B
:10F890000C94AAF50FE319E00C9404F50CE0009326
:10F8A0003F090895088119812A813B810895A1E0CB
:10F8B000B8E000E0FD01008F018F08950E946FF70E
:10F8C000088108959E0103E80C946FF700E00A9305
:10F8D0000A9330E040E050E060E070E008950000FE
:10F8E0008895FECF0CE70DBF0BE00EBFCDE7DEE045
:10F8F0000E9401FD002311F00E9413FD0E944AFBAB
:10F900000E946FFC0C946FFCF999FECF08954F5F35
:10F910005F4FFADF41BD52BDF89A0895FADF00B596
:10F9200008954F5F5F4F41BD52BDF894FA9AF99A1E
:10F930000FBE08950FB6E8DF00BDF5CF0024E8E064
:10F94000EA9532F0001F001C0416D0F3041AF8CF19
:10F95000001F402D00950895149F102D059F100D38
:10F96000049F002D110D08954A951AF0000F111FE4
:10F97000FBCF08954A951AF016950795FBCF089589
:10F980004A952AF0000F111F221F331FF9CF089547
:10F990004A952AF03695279517950795F9CF08953A
:10F9A000AF93BF93D80101900D9241505040D9F7C9
:10F9B000BF91AF910895FA92EA92DA92CA92BA92FE
:10F9C000AA929A928A927A926A925A924A92BA9396
:10F9D000AA939A938A930895FF84EE84DD84CC845D
:10F9E000BB84AA84998488847F806E805D804C80EB
:10F9F000BB81AA8199818881F0E0EC0FFD1FEF01A6
:10FA0000089501E0089520E008D0E9F708953BBF8C
:10FA100027913BB702D0D9F708952D93015010409C
:10FA2000202F212B089506E8402E0AEF502E01E0EA
:10FA3000602EF201362D6BBE07911691F201EE5F3A
:10FA4000FF4F3F4F3BBFA791B691F201362DEC5FC0
:10FA5000FF4F3F4F3BBF479157916691242F252B76
:10FA6000262B21F0FA01362FD2DF01C0CCDF07E0D0
:10FA7000400E00E0501E601EA201662D4D385A4F08
:0DFA80006140B8F208953D0A000100000049
:10FF0000249740E0488349834A834B839E010E94A3
:10FF10006FF7012B29F4088119812A813B8104C0E4
:0CFF200000E010E020E030E0249608959E
:040000031000E00009
:00000001FF
