:020000021000EC
:10E000000C9481FC189518951895189518951895E5
:10E010001895189518951895189518951895189598
:10E02000189518950C9436F8189518951895189514
:10E030001895189518951895189518951895189578
:10E0400018951895189518950C94C9F01895189569
:10E050001895189518951895189518951895189558
:10E060001895189518951895189518951895189548
:10E070001895189518951895189518951895189538
:10E0800018951895189518951895189508E20AB9D5
:10E0900001E00093D80000E00093DB000093DF0074
:10E0A0000093DE000AE00093E2000EE00093E3003C
:10E0B0000BE40093E40000E02FD014E01093F40090
:10E0C00010E01093F50010E81093F6001FEF109386
:10E0D000F70010E01093F0001093F10010EC109393
:10E0E000F20016E61093F30018E81093EF00039582
:10E0F000043010F304E010D010E01093EF0003950B
:10E100000F30C8F302E00093D80000EE0093DB006C
:10E110000FE00093DE000895102F1295107F1093EA
:10E12000ED0008951C010801F89400E10093ED0052
:10E1300000000000C3D0042F0295007F000F009361
:10E14000F2008A0143E00E94C9FC0093F30080E0E2
:10E1500090E030E008C00000F001E80FF91F0081F6
:10E160000093FA00019682179307ACF33093EE0008
:10E170003093DB0020642093EF0001C00000009189
:10E18000EE0006FFFBCF00EA0093DB007894C101AC
:10E190000895BA93AA939A938A93FA93EA933A9238
:10E1A0002A921A920A927A936A935A934A933A93CA
:10E1B0002A931A930A93AFB7BBB7F89480E0982FCD
:10E1C0009295907F9093ED0000000091EE0005FB8A
:10E1D0000EF05AC00E70D9F50091F00002FD37C064
:10E1E0000091F30010E043E00E94C3FC2091F20094
:10E1F00022952F70269530E0020F131F053323E080
:10E20000120719F00633120711F500938A061093CE
:10E210008B060091EF000F7000938C0600E00DC09C
:10E22000192F102B1093ED002091FA00F0E0E02F51
:10E23000EE57F94F20830000039510918C060117CB
:10E2400078F322E836E000E011E00E9472F190934A
:10E25000ED0004E00093F40000E00093F50000E816
:10E260000093F6000FEF0093F70028D000EC009326
:10E27000F20006E60093F30008E80093EF00009137
:10E28000EE00017C0093EE008395843008F497CF74
:10E290007894BBBFAFBF09911991299139914991E8
:10E2A0005991699179910990199029903990E99142
:10E2B000F99189919991A991B991189500E00093EC
:10E2C000F0000093F100089520E0F80121832083FD
:10E2D0000895F80121810081201711F401E00895CB
:10E2E00000E008951D01D801119630D0119737D064
:10E2F000BD01600F711F6E5F7F4F8B012CD0119697
:10E300000C910F770C931E91011729F4012F03959F
:10E310000C930F770C93D10108950E94F6FCD8015D
:10E32000C901D7DF002371F411D019D09D01200F4E
:10E33000311F2E5F3F4F8C010ED00C910F770C9345
:10E3400001E001C000E0E4E00C9407FD4C91042FD3
:10E3500003950C930895F9014BE00C94DFFC50E019
:10E360000BE010E00C94BBFC0E94EAFC659708836C
:10E370001983C22ECA01A62FF32E2DA13EA108E0BB
:10E38000C01638F4022F032B21F42C2D088192D0D3
:10E390007EC0DD246624639429014C0C5D1C052D90
:10E3A00000610A834B8200241124BE016E5F7F4FFF
:10E3B000600D711D0C141D0484F0212C220C220808
:10E3C0008C012A2F000D111D221D6AD011F065D07D
:10E3D00009C0F8012BBF069105C0E881F981E00D65
:10E3E000F11D0081FB010283060C1D1C06E00016D6
:10E3F0001D04DCF25AD006E0802E992417C0E88173
:10E40000F981E80DF91D0081FB01008301E0800E18
:10E4100000E0901EE39408E0E01600F1062D005E97
:10E420000A8343D0DA9463940FE060228414950445
:10E4300074F5DD2089F44AD1F1F79E01265F4CD1B5
:10E440000A85007F0033B9F70A850F7019F0025072
:10E4500011F0F1CF7B84D72CEE24E394BE016E5FE4
:10E460007F4F10E06E0D711F8C14910644F2A92CA1
:10E47000AA0CAA088C012A2F080D191D2A1D10D0DC
:10E4800011F00BD0C1CFF8012BBF0691BDCF00E03A
:10E4900010E06596E2E10C94FBFCA8010C949DFC55
:10E4A0000C1910402040FF2008952FD10E5F1F4F00
:10E4B0000C9492F09A938A932897322F3F70388366
:10E4C00080E090E050E009C0F801E80FF91F3081CA
:10E4D000FE01E80FF91F31830196422F4F70841718
:10E4E000950794F310D128968991999108950E94E7
:10E4F000EAFC63977801C9015A01FE0120E0A8E017
:10E500002193AA95E9F7CC24A3EAB6E03AC00031FA
:10E51000C1F500E0E6D0102F00E0FC01008311837C
:10E52000098510E020813181200F311F2083318344
:10E53000772473944424552422E006E0802E992405
:10E54000FE013896E20FF11FD8D0470C511EB8D00B
:10E55000B8F303E2D02E00E30883D9821A8323E0C4
:10E56000FE01E20FF11F1083ABD0D0F300E011E009
:10E570000E9464F1C8D0CC24C394FD01948295829A
:10E580006624A4D009F07EC09E01285FA5D00C2D82
:10E59000CC2019F00A9501F1F4CF0885007F09F02D
:10E5A000B6CF00E010E09DD0FC010083118300E0B5
:10E5B0000BC0FE01389610E0E00FF11F2181F7013A
:10E5C000E00FF11F2083039518851F70011788F352
:10E5D000188579D000E071C000E010E0FD010483EF
:10E5E00005830283038363940FE0602208850F7024
:10E5F000061571F002E3088319831A8303E0FE0114
:10E60000E00FF11F10830395083008F054C0F7CFD6
:10E6100021E0FE01389630E0E20FF31F6ED001E0FA
:10E62000400E531E800E931E62D014F449D088F31E
:10E63000772019F080169106DCF004E2D02E0081DC
:10E6400080169106142D14F03ED010C000E0F501A4
:10E65000099500E30883D98200E00A8323E0FE01E4
:10E66000E20FF01F00832CD0D0F34DD0442455246A
:10E670007394072D4D2D0E94ADFC742E38D00CF4F0
:10E6800080CFA8CF01E0C01609F07BCFFD01248127
:10E690003581213D374008F474CF02E3088300E060
:10E6A00009830A8303E020E0FE01E00FF21F2083CC
:10E6B00003950830C8F327D001E06396E0E1EBCE84
:10E6C00023952830089501E0F501099400E011E058
:10E6D0000E9469F1002308953F4F00E011E00C947F
:10E6E0008DF1FD010283038308850F700895FC01FD
:10E6F000008111818016910608950081F701E40DD3
:10E70000F51D0083089501D0D3CE47E353E060E0C8
:10E7100070E028E08E01089500E010E020E030E095
:10E720002BBF43E0E0E0F12F47BFE89547B740FD3E
:10E73000FDCF00501F4F2F4F3F4F01304EED1407BC
:10E7400041E024073E0764F308952BBF43E0F8013E
:10E7500047BFE89507B700FDFDCF08951BB62BBF57
:10E7600045E0F80147BFE89507B700FDFDCF11E18F
:10E77000002417BFE8951BBE08959A938A93F894D6
:10E78000FB98F999FECF80E090E061E0FA01E80F94
:10E79000F91F0080FA01E80FF91F1180FC0167BF23
:10E7A000E8950296913090F3D9DF789401E0899151
:10E7B0009991089508E101D000E000936000089568
:10E7C0002027322F3295307F2327012F10E0602F32
:10E7D000022F02950F706027022F43E00E94C3FCB6
:10E7E0000627122708955BD1E7D006910C930F3FBF
:10E7F00009F4EC930C910B5F0C9300ECE62FF12FD6
:10E80000008302E010E0018312831383148301EC80
:10E81000058302E0068317831087118702EC0287C5
:10E82000138714871587168703EC078704E0008B8E
:10E83000118B128B138B04EC048B04E0058B168B6D
:10E84000178B108F85E090E026C0AC0145505040FA
:10E8500005E023D1980105E010E0AC011ED1AB0129
:10E86000400F511F09012224890120E00F5F10424F
:10E870009ED0FA01008302E0000E0FED101E01E0B1
:10E88000201EF0012BBE0E9470FCFA010182128250
:10E89000238234820196FD01008110E080179107E8
:10E8A000A4F200E01FC2B1D1022F0550088324D189
:10E8B00045E050E013C029D08B01000D111DF80177
:10E8C0003081A9D330830196F80101801280238022
:10E8D0003480A1D30E9461FC0496D7D030E0421767
:10E8E00053074CF3DC0106C00FEFFE01EA0FFB1FDC
:10E8F00000831196B130C4F300E01FED21E083D610
:10E90000AE0100E01FED7BD1EEC105E0A8D108010A
:10E9100008957FD1202ED901005C49F00A9539F085
:10E920000A9569F00A9589F00A9579F010C002E01D
:10E9300010E00D931D931D931C9300E037C0B3D0DE
:10E940000D930D930D930C9331C004E0F1CF34D0AF
:10E9500036900FEF301649F1CFD001C00596432D08
:10E9600050E005E07CD108171907D4F0AC01692FFD
:10E97000660F660B8C01262F0050114218D002152D
:10E9800069F74F5F50426E4FFA016BBF4791579145
:10E99000679176914D935D936D937C9384D006C07F
:10E9A0005D935D935D935C930FEF1FEF9BC12E4FC3
:10E9B000F8012BBF06910895E0E0FFED31E03BBF89
:10E9C00008950E94F4FCB801242E8E819F81A885B1
:10E9D000B98512D1F9014080552401C056D04415A3
:10E9E00055054CF405E03BD154D000810215B1F738
:10E9F0001CD000E016C0042D023390F405E010E0B6
:10EA0000A20146D02082F901408105E028D1600FA3
:10EA1000711FFB010AD0F901008103950083E9CF42
:10EA200002E010E0EAE00C9405FD81839283A38369
:10EA3000B483089534D0242FDFD001C026D00C91A8
:10EA400010E040175107FCF405E022D000810217C6
:10EA5000A9F79A010DC005E010E0A90119D01F0126
:10EA60003596810145E050E00E94DFFC2F5F3F4F6B
:10EA70008C9190E00197281739076CF30C910A9557
:10EA80000C9311D001C002E02DC14F5F5F4F08957C
:10EA900004D0FB01E00FF11F08950C94BBFCB9D02A
:10EAA000B801D901089500E010E008950E94F2FC39
:10EAB0001801A22F9A0120D040E016C050E025DFB7
:10EAC0008101000D111DF8015081F901A1D2F80159
:10EAD0004180528063807480F9019ED240825182CD
:10EAE00062827382049643954A1740F3FB01808348
:10EAF0009183E8E00C9403FD81E090E008950E948A
:10EB0000EEFC280139014A015B014FEF5FEFC801BC
:10EB1000D9010AC0FC01ABBF26918A0151DEA801D0
:10EB20008F5F9F4FAF4FBF4F82019301080D191D9B
:10EB30002A1D3B1D80179107A207B30758F38A01CE
:10EB4000ECE00C94FFFC0E94F1FC27973801822E28
:10EB50002A01222319F40FEF1FEF1DC090E080E07F
:10EB6000482F7BD0D3014CD25AD2DED1C8DFFD0171
:10EB7000208531850217130749F00FEF08839E01A6
:10EB80008201ECD227E08E01EED49FEF83958815A9
:10EB900038F3092F10E02796E9E00C9402FD35D0F8
:10EBA000222E288381E028D015C058D0DB0128D23E
:10EBB000FE01E80FF51F1BD038D219D0048315834E
:10EBC000268337830D911C910087118752875387C5
:10EBD000845F4395421548F390E00FEFFE011DD08E
:10EBE0009130DCF30CD5AE0100E01EED8CCE0D9122
:10EBF0001D912D913D91089540E050E0089521E050
:10EC000030E061D4D395E4E0089503D0DA95B801FB
:10EC100008950C94F6FC0FE2F301FED100830196F7
:10EC200008950E94F2FC1801CA01E6DF01C02DDF41
:10EC300030E04217530774F411D0F1012BDF40800C
:10EC4000518062807380481659066606770679F708
:10EC50008A0102C00FEF1FEF4CCF50E00AE010E036
:10EC60001CCFD7DFB80180E090E0A0E0B0E0F80171
:10EC70000181053611F0053409F4B1E003E0002EFE
:10EC8000112419C00156063090F400810755104038
:10EC9000212F220F220B322FFB0140814019440FFC
:10ECA000440F0E94CFFC800F911FA21FB31F01E0F1
:10ECB000000E00E0101EFB01008110E000151105A0
:10ECC0007CF0E00DF11D008100530A30008110F44A
:10ECD0000053DDCF015406300081A0F60753D7CF93
:10ECE0008C019D01E4E00C9407FD0E94EAFC23974F
:10ECF00009831A837901CA01DB018B889C88AD885E
:10ED0000BE88C52ED62E882011F041E001C040E01B
:10ED1000292D3A2D50E0240F351FF70100810530D1
:10ED200008F08FC058832C013B01480C591C6A1C09
:10ED30007B1C0FEF400E501E601E701E2C2C362EBA
:10ED4000220E331E200E301E2EC0408111812281E2
:10ED50003381512FB901313018F184179107A2077F
:10ED6000B30748F0DCD07DD0F5D3081719072A0780
:10ED70003B0708F04DC0441655066606770618F0A6
:10ED800066D008F045C0C6D018F461D008F440C081
:10ED900001E0401600E1500600E060067006C0F594
:10EDA0000881039508830881F7011081011790F508
:10EDB000402F50E05ED0B13040F6418152817381E6
:10EDC000713070F70481002311F061E001C060E050
:10EDD0000581168170E0060F171F040F151F0150E3
:10EDE0001040C416D50618F009171A0788F424161F
:10EDF000350618F00215130558F4C416D50618F494
:10EE00000215130528F00EED201601E0300640F241
:10EE100003E018C0412F50E02CD080839183A2835F
:10EE2000B38325D084829582A682B7822F89388DBC
:10EE30001ED020873187F70100810395008300E011
:10EE400001C002E010E02396E6E10C94FBFC67D0E1
:10EE500008D0104020403040041515052605370520
:10EE60000895040F151F261F371F01500895F7013D
:10EE700040810AE0F4DEE981FA810CCE0E94EAFCCE
:10EE8000780169012A013B01AA2401C0A394F6017B
:10EE90000081A016D8F54A2DE0DE4701800E911EB4
:10EEA000F40142D0041515052607370779F701E06C
:10EEB000701698F4952DDB0180E008C000E0192F52
:10EEC0009D01A1D380509F4FAF4FBF4FF40127D07A
:10EED000A201B3016ED31ED088F3A3942A2D0EC0D5
:10EEE000422FBBDE0701000E111EB0016A507040B8
:10EEF0008B01F0014AE00E94DFFC2395F6010081BE
:10EF0000201770F30A95008300E001C001E010E0D3
:10EF1000E0E19BCF84179507A607B7070895048102
:10EF200015812681378108950081118122813381E5
:10EF300008950E94ECFC6801922E3A015B01DCDD31
:10EF4000882426C0295AF301E20DF31D20836F5F48
:10EF50007F4F683000E0700764F1002039F403E06F
:10EF60005BDE06E659DE57DE00E356DE2301480E7F
:10EF7000591EFD01D4DFF20158D051D044D0BFDD7D
:10EF800020E0F20104831583268327830896839467
:10EF9000891480F5482D61DED60132D013960C918C
:10EFA000139700FF02C055E601C056E6002462E058
:10EFB00070E04CE1062F000F000F401B24D0139788
:10EFC0000E94D7FC202F2F7059F0002049F4002414
:10EFD00003940AE0061B20DEF3011AD01CDE03C0F6
:10EFE000002009F4B4CF1C0101962A3008F0AACF02
:10EFF000205DA9CFF50180839183EEE00C94FDFCA8
:10F00000A00FB11F08950D911D912D913C91089570
:10F0100003D0508304CEFE01E80FF91F0895FD01CF
:10F02000448155816681778108950083118322830D
:10F0300033830895BA93AA9300E00093DB00009312
:10F040006F000093700001E005BF00E005BFB2DB78
:10F0500000E81FEFEAE4F0E000831183ACECB6E0D7
:10F06000ED91FC910995A991B9910895BA93AA934C
:10F070009A938A93FA93EA935AD27A936A935A9319
:10F080004A9350D28FB79BB7F89400E05CD212E05D
:10F09000019FDF01A00DB11D56962D913C91579710
:10F0A00020363A4E38F456962D913C912F5F3F4FC3
:10F0B0003C932E9303950A3058F3008D118D083E32
:10F0C000134030F0FAD3AF0121AD21D2B9F4B2DF51
:10F0D00078949BBF8FBF09911991299139914991DA
:10F0E0005991699179910990199029903990E991F4
:10F0F000F99189919991A991B991189586D20000B9
:10F10000FECFBD01D801F9010181013011F000E00D
:10F1100023C0028110E044E00E94C3FC23812295B9
:10F120002F7030E0020F131F0D931D933D933D93FD
:10F1300003810F700D9304810D93058102950F706B
:10F140000C93169725812F7056814781FD014783C7
:10F1500050872187328701E0DB010895BD01D80186
:10F160004D915D9112978A0144E00E94C9FCF9011A
:10F1700001834D9111974295407FFD0104810F70ED
:10F18000402BF9014283FD010581F9010383FD0153
:10F1900006810295007F4185042BF9010483FD015E
:10F1A0004085F9014583FD014781F9014683D4CFAC
:10F1B0000E94EEFC702E612E0DE8402E06E0502ECF
:10F1C00000E0F2017BD30091C8060A9539F00A9558
:10F1D00009F43FC10A9509F464C174C1A0E4B8E020
:10F1E000009140080A9509F4E0C0025009F480C07B
:10F1F000025009F48AC0025009F4ACC0025079F000
:10F20000025031F1025009F4B0C0025009F4B5C007
:10F21000025009F4C4C0025009F4FFC053C17FD1A9
:10F220004091410850E0A40FB51FFD0102801380FA
:10F230002480358046815781EAE0E0933F095A9364
:10F240004A9375D192D151DD55D1D9D15ED1A5C0A6
:10F2500062D1F2018FD109F435C1C7D121E0B216D4
:10F26000428153816481758190F53DD182A693A638
:10F27000A4A6B5A684AE8091C90690E03FEF2FD139
:10F28000308301969130D4F38092C7060A5F1F4FF6
:10F29000C80108C01093C7064EE35AE0F20156D1E8
:10F2A00077D10196A8D15CF40091C7069AD120814C
:10F2B000F80116D120830F3F69F33ED1F2CF7720BA
:10F2C00011F402E0FEC03DD141D1FDD0FBC00BD115
:10F2D00086A697A6A0AAB1AA0A5F1F4FC80101C0BF
:10F2E0006DD189D1ECF3772009F0ECC003E0E9C0DF
:10F2F00004E0E0D263EC76E04FE359E0B1D219DEEE
:10F30000F4D221D126A9D2D2DDC006E0D3D203D1D6
:10F310001AD130D1E1F069D10681178114D106AB41
:10F3200017ABE7D040D1A401B50143D10CD142A71E
:10F3300053A764A775A701E0B01610F031E001C033
:10F3400030E006A917A91A930A9322E0DCCF01E066
:10F35000D1D023C008E0AED211968D0182DC05D158
:10F360008DDDC8D0FDD0D1D0ADC00E948CF30EE0B1
:10F37000A1D200E00093C60610C000E1BED038F76D
:10F3800012D1D0D08AD21DDBB5D000914009002324
:10F3900021F42091C50683D286DAE2D093C002E13F
:10F3A000ACD0A8F67AD246DBEFCF9D0173D2CBD09A
:10F3B000038514852585368540815181628173815D
:10F3C00084D021F0012B022B032B21F5078514811A
:10F3D000011711F00023F1F401891681011711F0D2
:10F3E0000023C1F402891389248935894781508516
:10F3F000618572856AD021F0012B022B032B51F419
:10F4000000919D0610919206011709F45BC000233C
:10F4100009F458C0FAD00000FECF04E14BD20091AD
:10F420004009002319F00A9581F04CC04DE856E0E0
:10F430002091C6066CD021F400E090D0FBDD42C0E4
:10F4400001E08CD0E2D00000FECF03E00093410841
:10F45000A4CF80E090E008C05093C7064EE35AE086
:10F46000F20138D095D001960091C70650E086157C
:10F47000950754F4B6D01081E02FF0E031D010831E
:10F480000F3F51F359D0EFCF7720E1F0802F90E07C
:10F490000FEF25D0C3DB9130DCF353D01BD013D05A
:10F4A00008C080E090E001C089D0A5D0ECF37720BF
:10F4B00049F019E00CE0FED11CD022E00FE353D05C
:10F4C00001E0E5D13DCB0C94BDF3041715072607E9
:10F4D0003707089502A513A524A535A50895FC01B5
:10F4E000E25CF54F0895840E951EA61EB71EF2012C
:10F4F000089500E000934009089500933F0940916A
:10F500004108042F0A950F370895AAD148CBAAD1F4
:10F510001ADB012B089503D048015901089501E435
:10F5200018E09FCB3A932A931A930A9308953A923C
:10F530002A921A920A920895F20102AD039502AF3F
:10F5400008954EE35AE0EDE8F6E00895C3DF009039
:10F55000C90600191040204030400895009341082A
:10F5600022E00FE319E00C945AF2A801B90126EC4D
:10F5700036E078C102AB13AB24AB35AB2091C606A5
:10F58000A8016A2D732F6ED14CDB0F3F1F4F0895DA
:10F590009ADFF2019FDF00501F4F2F4F3F4F13A7FD
:10F5A00024A735A70895FD010281138124813581A7
:10F5B0000895400F511F621F731F0895F20146A561
:10F5C00057A58A0120A931A90F5F1F4F2F4F3F4F29
:10F5D00006A717A720AB31AB04D000810E94A9FC7D
:10F5E0001ECBFC01E05CF74F08950091410810E04C
:10F5F00007DDFD01089510E086159107089500E0EC
:10F600001EED21E030E00C94A5F30091600008614C
:10F61000D4D80EE0D2C86197F894ADE8B6E000E027
:10F62000FD014CD101E005BF02E005BF0E9446F09C
:10F63000C3D838D100E0009380000CE00093810033
:10F6400000E512E110938900009388002CDA009302
:10F650008500009384000EE00093B0000EE200935A
:10F66000B3001093B6001093B20010936F0002E045
:10F670000093700078941093C6060FE31DE023E01A
:10F68000015010402040E1F700C00000E0E0FEED36
:10F6900031E03BBF06910093C6066091C6066F3FFE
:10F6A00019F4E093C6062DC0A7DA70E027C0142F26
:10F6B0000CE0109F202D0AE029D9D4D0000D111D97
:10F6C000022E112431E002D1FCD0022E112435E0AB
:10F6D000FDD00482158226823782022E1124222434
:10F6E00029E0020E2EED121E21E0221EF0012BBE9B
:10F6F00007901690F80100861186C7D9461757075C
:10F70000B4F225EC36E0CBD06ED89E0101E8B5D03E
:10F7100020E00D931D932D932C9313979E0106E8E3
:10F72000A9D0009391069E0105E8A4D0009393060A
:10F730009E0103E8A2D02A813B81FD010783108747
:10F74000218732879E0102E895D00093920600E05F
:10F750009ED005C00091C806002309F06AC000E0F1
:10F7600011E00E9469F10023A9F70091C806002367
:10F7700089F79E012A5F3F4F00E011E00E948DF162
:10F780009E012A5F3F4F86D0002349F300E0FD0130
:10F79000438554856585768574D011F401E007C0F2
:10F7A0000D901D902D903C9013975FD0C1F617855A
:10F7B000112311F401E003C02481121781F611898D
:10F7C000112311F401E003C02681121741F642898A
:10F7D00053896489758955D011F401E007C0078009
:10F7E00010842184328441D009F0B9CF10891123CB
:10F7F00071F12581121709F0B2CF00FB46F10FE934
:10F8000016E821E0015010402040E1F700C0000060
:10F8100054D048D002E04ED0BE016C5F7F4F4FE322
:10F8200059E02091C5063BD041D95FD02E813ED012
:10F830002DD048ED58EF2AEC36E000E418E00E94A5
:10F8400077F2013011F42ED021D0A895F2CF00E04C
:10F8500031D02FE339E08D0181DC27E082DE7FCFDC
:10F860002091C6060EEC16E008954015510562057C
:10F87000730508954ED8088108954BD808811981E1
:10F880000895142F152B162B172B089501E00093C4
:10F89000C806089508E916E034CC25EC36E000E00F
:10F8A00017E0089500E011E00C9464F10FE319E013
:10F8B0000C94B4F100933F09089500E0008F018F8C
:10F8C000089500821182228233820895030E3EED54
:10F8D000131E31E0371FF0013BBF02D0F80108953D
:10F8E0000790179027903690089500E00A930A93A6
:10F8F00030E040E050E060E070E00895000088955E
:10F90000FECF0CE70DBF0BE00EBFCDE7DEE00E949F
:10F9100010FD002311F00E9422FD0E940BFB0E94AB
:10F920007EFC0C947EFCF999FECF08954F5F5F4FEB
:10F93000FADF41BD52BDF89A0895FADF00B5089587
:10F940004F5F5F4F41BD52BDF894FA9AF99A0FBECE
:10F9500008950FB6E8DF00BDF5CF0024E8E0EA9592
:10F9600032F0001F001C0416D0F3041AF8CF001F59
:10F97000402D00950895149F102D059F100D049F94
:10F98000002D110D08954A951AF0000F111FFBCF9D
:10F9900008954A951AF016950795FBCF08954A9554
:10F9A0002AF0000F111F221F331FF9CF08954A9527
:10F9B0002AF03695279517950795F9CF0895AF93B7
:10F9C000BF93D80101900D9241505040D9F7BF919B
:10F9D000AF910895FA92EA92DA92CA92BA92AA92F2
:10F9E0009A928A927A926A925A924A92BA93AA9375
:10F9F0009A938A930895FF84EE84DD84CC84BB843B
:10FA0000AA84998488847F806E805D804C80BB81CD
:10FA1000AA8199818881F0E0EC0FFD1FEF01089524
:10FA200001E0089520E008D0E9F708953BBF279151
:10FA30003BB702D0D9F708952D9301501040202FE5
:10FA4000212B089504EA402E0AEF502E01E0602E8B
:10FA5000F201362D6BBE07911691F201EE5FFF4F5A
:10FA60003F4F3BBFA791B691F201362DEC5FFF4FA0
:10FA70003F4F3BBF479157916691242F252B262B53
:10FA800021F0FA01362FD2DF01C0CCDF07E0400EB3
:10FA900000E0501E601EA201662D4B3A5A4F614095
:0BFAA000B8F208953D0A0001000000CC
:10FF0000249740E0488349834A834B839E010E94A3
:10FF100089F4012B29F4088119812A813B8104C0CD
:0CFF200000E010E020E030E0249608959E
:040000031000E00009
:00000001FF
